:020000040800F2
:10000000FC07002089010008F5010008F50100083F
:10001000F5010008F5010008F501000800000000E6
:10002000000000000000000000000000F5010008D2
:10003000F501000800000000F5010008F5010008C6
:10004000F5010008F5010008F5010008F5010008B8
:10005000F5010008F5010008F5010008F5010008A8
:10006000F5010008F5010008F5010008F501000898
:10007000F5010008F5010008F5010008F501000888
:10008000F5010008F5010008F5010008F501000878
:10009000F5010008F5010008F5010008F501000868
:1000A000F5010008F5010008F5010008F501000858
:1000B000F5010008F5010008F5010008F501000848
:1000C000F5010008F5010008F5010008F501000838
:1000D000F5010008F5010008F5010008F501000828
:1000E000F5010008F5010008F5010008F501000818
:1000F000F5010008F5010008F5010008F501000808
:10010000F5010008F5010008F5010008F5010008F7
:10011000F5010008F5010008F5010008F5010008E7
:10012000F5010008F5010008F5010008F5010008D7
:10013000F5010008F5010008F5010008F5010008C7
:10014000F5010008F5010008F5010008F5010008B7
:10015000F5010008F5010008F5010008F5010008A7
:10016000F5010008F5010008F5010008F501000897
:10017000F5010008F5010008F5010008F501000887
:10018000F5010008F501000880B582B000AF40F22B
:100190000C43C0F600037B6040F20003C2F2000390
:1001A0003B600BE07B681A683B681A603B6803F1B0
:1001B00004033B607B6803F104037B603A6840F210
:1001C0000003C2F200039A42ECD3084808494FF0FA
:1001D00000028842B8BF40F8042BFFF6FAAF00F0E7
:1001E000FDF807F10807BD4680BD000000000020B3
:1001F0000000002080B400AFFEE700BF80B400AF75
:100200004FF46053C4F202034FF46052C4F202028E
:10021000926842F414429A604FF46053C4F20203AD
:100220004FF46052C4F20202126842F480321A6043
:1002300000BF4FF46053C4F202031B6803F40033A1
:10024000002BF6D04FF46053C4F2020345F208428B
:10025000C0F240725A604FF46053C4F202034FF48C
:100260006052C4F20202126842F080721A6000BF4B
:100270004FF46053C4F202031B6803F00073002BB9
:10028000F6D04FF47053C4F2020340F205621A60D4
:100290004FF46053C4F202034FF46052C4F20202FE
:1002A000926842F002029A6000BF4FF46053C4F2B9
:1002B00002039B6803F00F030A2BF6D14FF460533F
:1002C000C4F202034FF46052C4F20202126B42F015
:1002D0000F021A634FF44063C4F202034FF0AA42C4
:1002E0001A604FF44063C4F202034FF07F429A60F9
:1002F0004FF46053C4F202034FF46052C4F202029E
:10030000126C42F480221A64BD4680BC704700BF64
:1003100080B400AF4FF44063C4F202034FF42022D4
:100320001A604FF44063C4F202034FF077025A623E
:100330004FF49043C4F2000341F212121A814FF4B9
:100340009043C4F200034FF49042C4F20002928939
:1003500092B242F0080292B29A814FF49043C4F2F2
:1003600000034FF49042C4F20002128A92B21A8241
:100370004FF49043C4F200034FF49042C4F20002E1
:10038000928992B242F4005292B29A81BD4680BCE8
:10039000704700BF80B483B000AF786015E000BF45
:1003A0004FF49043C4F200031B889BB203F0400358
:1003B000002BF5D04FF49043C4F200037A6892B258
:1003C0009A807B6803F101037B607B681B78002BBC
:1003D000E5D107F10C07BD4680BC704780B500AF82
:1003E000FFF70CFFFFF794FF40F2F830C0F6000073
:1003F000FFF7D0FFFEE700BF55534152543320446E
:0C040000454E454D4553490A00000000E0
:0400000508000000EF
:00000001FF
