:020000040800F2
:10000000E8080020BD0400081D0500081D050008C3
:100010001D0500081D0500081D0500080000000062
:100020000000000000000000000000001D050008A6
:100030001D050008000000001D05000889010008DA
:100040001D0500081D0500081D0500081D05000808
:100050001D0500081D0500081D0500081D050008F8
:100060001D0500081D0500081D0500081D050008E8
:100070001D0500081D0500081D0500081D050008D8
:100080001D0500081D0500081D0500081D050008C8
:100090001D0500081D0500081D0500081D050008B8
:1000A0001D0500081D0500081D0500081D050008A8
:1000B0001D0500081D0500081D0500081D05000898
:1000C0001D0500081D0500081D0500081D05000888
:1000D0001D050008390600081D0500081D0500085B
:1000E0001D0500081D0500081D0500081D05000868
:1000F0001D0500081D0500081D0500081D05000858
:100100001D0500081D0500081D0500081D05000847
:100110001D0500081D0500081D0500081D05000837
:100120001D0500081D0500081D0500081D05000827
:100130001D0500081D0500081D0500081D05000817
:100140001D0500081D0500081D0500081D05000807
:100150001D0500081D0500081D0500081D050008F7
:100160001D0500081D0500081D0500081D050008E7
:100170001D0500081D0500081D0500081D050008D7
:100180001D0500081D05000880B400AF044B1B6866
:100190005A1C034B1A60BD465DF8047B704700BFD4
:1001A0001400002080B58AB000AF78603960002369
:1001B0007B6200233B620023FB610023BB617B6801
:1001C0001B8A9BB27B627B6A23F440537B623B6851
:1001D000DB887A6A13437B627B6A9AB27B681A82F5
:1001E0007B689B899BB27B627B6A23F4B05323F0CC
:1001F0000C037B623B689A883B681B8913439AB265
:100200003B685B8913439BB27A6A13437B627B6AC8
:100210009AB27B689A817B689B8A9BB27B627B6A7D
:1002200023F440737B623B689B897A6A13437B6249
:100230007B6A9AB27B689A8207F10803184600F03D
:100240005FFA7A68314B9A4203D07A68304B9A420F
:1002500002D17B693B6201E03B693B627B689B8921
:100260009BB29BB21BB2002B0CDA3A6A13469B007E
:1002700013449A001A443B681B685B00B2FBF3F31B
:10028000FB610BE03A6A13469B0013449A001A4440
:100290003B681B689B00B2FBF3F3FB61FA691D4BE3
:1002A000A3FB02135B091B017B627B6A1B096422AF
:1002B00002FB03F3FA69D31ABB617B689B899BB28B
:1002C0009BB21BB2002B0DDABB69DB0003F13202DB
:1002D000104BA3FB02135B0903F007037A6A134375
:1002E0007B620CE0BB691B0103F13202094BA3FBEB
:1002F00002135B0903F00F037A6A13437B627B6A84
:100300009AB27B681A812837BD4680BD0010014033
:10031000001401401F85EB5180B483B000AF7860BA
:100320000B46FB70FB78002B08D07B689B899BB247
:1003300043F400539AB27B689A8107E07B689B89FB
:100340009BB223F400539AB27B689A810C37BD4666
:100350005DF8047B704700BF80B483B000AF786065
:100360000B467B807B88C3F308039AB27B689A8034
:100370000C37BD465DF8047B704700BF80B487B082
:1003800000AF786013460A467A807B7000233B6199
:100390000023FB600023BB6000237B617B687B61E3
:1003A0007B88DBB25B09DBB23B617B8803F01F0318
:1003B000FB60FB68012202FA03F3BB603B69012B7F
:1003C00003D17B690C337B6109E03B69022B03D1CC
:1003D0007B6910337B6102E07B6914337B617B783E
:1003E000002B06D07B697A691168BA680A431A60E3
:1003F00006E07B697A691168BA68D2430A401A60DC
:100400001C37BD465DF8047B704700BF80B487B0E1
:1004100000AF78600B467B800023FB6000237B618C
:100420000023BB600023FB747B88DBB25B09DBB27B
:10043000BB607B8803F01F037B617B69012202FAAA
:1004400003F37B61BB68012B06D17B689B899BB260
:100450007A6913407B610FE0BB68022B06D17B6891
:100460001B8A9BB27A6913407B6105E07B689B8A9B
:100470009BB27A6913407B617B881B0A9BB2FB604D
:10048000FB68012202FA03F3FB607B681B889BB2C6
:10049000FA681340FB607B69002B05D0FB68002BDA
:1004A00002D00123FB7401E00023FB74FB7C18469F
:1004B0001C37BD465DF8047B704700BF80B582B035
:1004C00000AF114B7B60114B3B6007E03B681A1D8E
:1004D0003A607A68111D796012681A603A680C4BAC
:1004E0009A42F3D30B480C494FF000028842B8BF40
:1004F00040F8042BFFF6FAAF00F0CEFA00F0F8F85F
:100500000837BD4680BD00BFA00C000800000020D9
:100510001000002010000020E400002080B400AF94
:10052000FEE700BF80B58AB000AF786008200121E7
:1005300000F090F92C4B4FF0AA421A602A4B4FF072
:10054000FF329A601020012100F0A2F9022001215F
:1005500000F080F9C0233B62022387F82430022395
:1005600087F82530002387F82630012387F82730C5
:1005700007F120031D48194600F0A8F91B48062181
:10058000072200F043FA19480721072200F03EFA3B
:100590007B683B610023BB820023FB8200233B83FB
:1005A0000023BB830C237B8307F1100310481946FB
:1005B000FFF7F8FD0E4840F225510122FFF7DEFE5D
:1005C00025233B7300237B730023BB730123FB7341
:1005D00007F10C03184600F005FB05480121FFF761
:1005E0009BFE2837BD4680BD000C0240000402403F
:1005F0000010014080B582B000AF7860396012E031
:1006000000BF7B681B889BB203F04003002BF8D02F
:100610003B681B78DBB278681946FFF79DFE3B68A4
:100620005A1C3A601B783B681B78DBB2002BE7D181
:100630000837BD4680BD00BF80B500AF274840F2F7
:100640002551FFF7E3FE0346002B45D0234B9B8843
:100650009BB2DAB2224B1A70214B1B780A2B0BD0BB
:10066000204B1B681E4A11781F4AD1541D4B1B6832
:100670005A1C1C4B1A600BE01A4B1B681A4A0021CB
:10068000D15416481849FFF7B5FF164B00221A60DF
:10069000134B1B78312B04D114484FF4805100F0D8
:1006A000A3F90F4B1B78322B04D110484FF40051A3
:1006B00000F09AF90A4B1B78332B04D10B484FF406
:1006C000804100F091F9064B1B78342B04D1074888
:1006D0004FF4004100F088F980BD00BF00100140D8
:1006E000E0000020100000207C000020000C0240F0
:1006F00080B500AF4FF41640FFF714FFFEE700BFD0
:1007000080B489B000AF78600023BB6100237B61B7
:100710000023FB6102233B610023FB600223BB60DB
:10072000484B9B6803F00C03BB61BB69042B07D0EB
:10073000082B09D0002B3FD17B68434A1A603FE069
:100740007B68424A1A603BE03E4B5B6803F48003DF
:100750009B0DFB603B4B5B6803F03F03BB60FB689A
:10076000002B0DD0394ABB68B2FBF3F2354B596808
:1007700047F6C0730B409B0903FB02F3FB610CE0DF
:10078000314ABB68B2FBF3F22E4B596847F6C0738F
:100790000B409B0903FB02F3FB612A4B5B6803F4EC
:1007A00040331B0C01335B003B61FA693B69B2FBD0
:1007B000F3F27B681A6003E07B68234A1A6000BF8B
:1007C000204B9B6803F0F003BB61BB691B09BB6155
:1007D0001F4ABB6913441B78DBB27B617B681A68D4
:1007E0007B69DA407B685A60164B9B6803F4E053E0
:1007F000BB61BB699B0ABB61154ABB6913441B788B
:10080000DBB27B617B685A687B69DA407B689A60FF
:100810000C4B9B6803F46043BB61BB695B0BBB6122
:100820000B4ABB6913441B78DBB27B617B685A6857
:100830007B69DA407B68DA602437BD465DF8047B6B
:10084000704700BF003802400024F40000127A0014
:100850000000002080B483B000AF78600B46FB70CE
:10086000FB78002B06D0094B084A116B7A680A43C3
:100870001A6306E0054B054A116B7A68D2430A40B9
:100880001A630C37BD465DF8047B704700380240A0
:1008900080B483B000AF78600B46FB70FB78002B10
:1008A00006D0094B084A516C7A680A435A6406E03C
:1008B000054B054A516C7A68D2430A405A640C379A
:1008C000BD465DF8047B70470038024080B487B0B5
:1008D00000AF7860396000237B6100233B61002317
:1008E000FB6000237B6176E07B69012202FA03F35F
:1008F0003B613B681A683B691340FB60FA683B69DF
:100900009A4265D17B681A687B695B00032101FA12
:1009100003F3DB431A407B681A607B681A683B6804
:100920001B7919467B695B0001FA03F31A437B6864
:100930001A603B681B79012B03D03B681B79022BA3
:100940002ED17B689A687B695B00032101FA03F36F
:10095000DB431A407B689A607B689A683B685B79E6
:1009600019467B695B0001FA03F31A437B689A60BE
:100970007B685A687B699BB2012101FA03F3DB4370
:100980001A407B685A607B685A683B689B791946B5
:100990007B699BB201FA03F39BB21A437B685A60EE
:1009A0007B68DA687B699BB25B00032101FA03F381
:1009B000DB431A407B68DA607B68DA683B68DB7986
:1009C00019467B695B0001FA03F31A437B68DA601E
:1009D0007B6901337B617B690F2B85D91C37BD4651
:1009E0005DF8047B704700BF80B483B000AF7860CF
:1009F0000B467B807B685A697B885A407B685A61CA
:100A00000C37BD465DF8047B704700BF80B485B0ED
:100A100000AF786013460A467A807B700023FB6043
:100A20000023BB607A787B8803F007039B0002FAFF
:100A300003F3FB607B88DB089BB21A467B88DB08EC
:100A40009BB219467B68083153F821107B8803F06C
:100A500007039B000F2000FA03F3DB4319407B6878
:100A6000083243F822107B88DB089BB21A467B6869
:100A7000083253F82220FB681343BB607B88DB08F5
:100A80009BB21A467B680832B96843F822101437C3
:100A9000BD465DF8047B704780B500AF114B114A2D
:100AA000126842F001021A600E4B00229A600D4A51
:100AB0000C4B1B6823F0847323F480331360094BC1
:100AC000094A5A60074B074A126822F480221A60CA
:100AD000044B0022DA6000F00BF8044B4FF0006288
:100AE0009A6080BD003802401030002400ED00E024
:100AF00080B483B000AF00237B6000233B60354BA4
:100B0000344A126842F480321A60324B1B6803F494
:100B100000333B607B6801337B603B68002B03D173
:100B20007B68B3F5A06FF0D12A4B1B6803F4003348
:100B3000002B02D001233B6001E000233B603B68B7
:100B4000012B42D1234B234A126C42F080521A648B
:100B5000214B214A126842F480421A601D4B1D4A03
:100B600092689A601B4B1B4A926842F400429A605A
:100B7000184B184A926842F4A0529A60154B174AD3
:100B80005A60144B134A126842F080721A6000BF18
:100B9000104B1B6803F00073002BF9D0104B40F290
:100BA00005621A600B4B0B4A926822F003029A60AE
:100BB000084B084A926842F002029A6000BF054B57
:100BC0009B6803F00C03082BF9D10C37BD465DF888
:100BD000047B704700380240007000400854400712
:100BE000003C024080B485B000AF78600023FB7306
:100BF0000023BB730F237B737B68DB78002B37D01C
:100C0000254BDB68DB4303F4E0631B0AFB73FB7BD0
:100C1000C3F10403BB737A7BFB7B42FA03F37B7360
:100C20007B685B781A46BB7B02FA03F3FB737B6835
:100C30009A787B7B1340DAB2FB7B1343FB73FB7B1D
:100C40001B01FB73154A7B681B781344FA7B83F8FE
:100C50000023124B7A6812785209D2B27968097867
:100C600001F01F01012000FA01F143F822100EE00B
:100C70000A4B7A6812785209D2B27968097801F081
:100C80001F01012000FA01F1203243F8221014372D
:100C9000BD465DF8047B704700ED00E000E100E038
:100CA0000000000001020304010203040607080912
:0400000508000000EF
:00000001FF
