:020000040800F2
:10000000FC07002089010008F9010008F901000837
:10001000F9010008F9010008F901000800000000DA
:10002000000000000000000000000000F9010008CE
:10003000F901000800000000F9010008F9010008BA
:10004000F9010008F9010008F9010008F9010008A8
:10005000F9010008F9010008F9010008F901000898
:10006000F9010008F9010008F9010008F901000888
:10007000F9010008F9010008F9010008F901000878
:10008000F9010008F9010008F9010008F901000868
:10009000F9010008F9010008F9010008F901000858
:1000A000F9010008F9010008F9010008F901000848
:1000B000F9010008F9010008F9010008F901000838
:1000C000F9010008F9010008F9010008F901000828
:1000D000F9010008F9010008F9010008F901000818
:1000E000F9010008F9010008F9010008F901000808
:1000F000F9010008F9010008F9010008F9010008F8
:10010000F9010008F9010008F9010008F9010008E7
:10011000F9010008F9010008F9010008F9010008D7
:10012000F9010008F9010008F9010008F9010008C7
:10013000F9010008F9010008F9010008F9010008B7
:10014000F9010008F9010008F9010008F9010008A7
:10015000F9010008F9010008F9010008F901000897
:10016000F9010008F9010008F9010008F901000887
:10017000F9010008F9010008F9010008F901000877
:10018000F9010008F901000880B582B000AF40F223
:100190008463C0F600037B6040F20003C2F20003F8
:1001A0003B600BE07B681A683B681A603B6803F1B0
:1001B00004033B607B6803F104037B603A6840F210
:1001C0000003C2F200039A42ECD3094809494FF0F8
:1001D00000028842B8BF40F8042BFFF6FAAF00F0E7
:1001E00043F900F031F907F10807BD4680BD000072
:1001F000000000200000002080B400AFFEE700BF38
:1002000080B400AF4FF4E043C4F200034FF4E04287
:10021000C4F20002126842F480721A604FF4605314
:10022000C4F202034FF46052C4F20202126F42F4AD
:1002300000421A674FF46053C4F202034FF4605255
:10024000C4F20202126F42F440721A674FF4605314
:10025000C4F202034FF46052C4F20202926842F404
:1002600000229A604FF42053C4F200034FF0CA02F8
:100270005A624FF42053C4F200034FF053025A6203
:100280004FF42053C4F200034FF42052C4F2000292
:10029000D26842F08002DA6000BF4FF42053C4F20B
:1002A0000003DB6803F04003002BF6D04FF420532B
:1002B000C4F200034FF42052C4F20002126942F467
:1002C000F95242F01F021A614FF42053C4F20003A6
:1002D0004FF42052C4F20002126942F4F8021A618B
:1002E0004FF42053C4F200034FF42052C4F2000232
:1002F000126842F480021A604FF42053C4F20003E3
:100300004FF42052C4F20002126842F0211242F46B
:1003100004521A604FF42053C4F200034FF42052E9
:10032000C4F20002526842F0211242F448525A606C
:100330004FF42053C4F200034FF42052C4F20002E1
:1003400092689A604FF42053C4F200034FF4205295
:10035000C4F20002D26822F08002DA604FF4205327
:10036000C4F200034FF0FF025A62BD4680BC7047E2
:1003700080B491B000AF78604FF42053C4F2000312
:100380001B68FB63FB6B4FEA1353BB63BB6B03F050
:100390000303BB63BA6B13464FEA83039B184FEA10
:1003A0004303BB63FB6B4FEA13437B637B6B03F03D
:1003B0000F037B63BA6B7B6BD3183B633B6BFB60B8
:1003C000FB6B4FEA1333FB62FB6A03F00703FB622C
:1003D000FA6A13464FEA83039B184FEA4303FB6212
:1003E000FB6B4FEA1323BB62BB6A03F00F03BB62D4
:1003F000FA6ABB6AD3187B627B6A3B61FB6B4FEA8C
:1004000013133B623B6A03F007033B623A6A1346ED
:100410004FEA83039B184FEA43033B62FB6B03F0F5
:100420000F03FB613A6AFB69D318BB61BB697B614F
:100430007B6807F10C0207CA83E80700786807F1B8
:100440004407BD4680BC704780B586B000AFFFF75B
:10045000D7FE3B461846FFF78BFF3B687B617B6806
:100460003B61BB68FB60F4E780B500AF4FF46053BD
:10047000C4F202034FF46052C4F20202126842F066
:1004800001021A604FF46053C4F202034FF00002FD
:100490009A604FF46053C4F202034FF46052C4F206
:1004A0000202126822F0847222F480321A604FF441
:1004B0006053C4F2020343F21002C2F200425A60D7
:1004C0004FF46053C4F202034FF46052C4F20202CC
:1004D000126822F480221A604FF46053C4F20203BF
:1004E0004FF00002DA6000F009F84FF46D43CEF2ED
:1004F00000034FF000629A6080BD00BF80B483B0FB
:1005000000AF4FF000037B604FF000033B604FF4FF
:100510006053C4F202034FF46052C4F20202126844
:1005200042F480321A604FF46053C4F202031B6835
:1005300003F400333B607B6803F101037B603B689D
:10054000002B03D17B68B3F5A06FECD14FF460535F
:10055000C4F202031B6803F40033002B03D04FF0F6
:1005600001033B6002E04FF000033B603B68012B5E
:1005700040F082804FF46053C4F202034FF46052A3
:10058000C4F20202126C42F080521A644FF4E0434B
:10059000C4F200034FF4E042C4F20002126842F4D5
:1005A00080421A604FF46053C4F202034FF4605269
:1005B000C4F2020292689A604FF46053C4F20203DC
:1005C0004FF46052C4F20202926842F400429A6010
:1005D0004FF46053C4F202034FF46052C4F20202BB
:1005E000926842F4A0529A604FF46053C4F202033E
:1005F00045F21942C0F240725A604FF46053C4F29F
:1006000002034FF46052C4F20202126842F0807298
:100610001A6000BF4FF46053C4F202031B6803F07A
:100620000073002BF6D04FF47053C4F2020340F273
:1006300005621A604FF46053C4F202034FF4605233
:10064000C4F20202926822F003029A604FF46053EF
:10065000C4F202034FF46052C4F20202926842F004
:1006600002029A6000BF4FF46053C4F202039B6819
:1006700003F00C03082BF6D107F10C07BD4680BC34
:04068000704700BF00
:0400000508000000EF
:00000001FF
